S0120000726F746172795F73656C2E73726563CE
S11300000C9446000C9465000C9465000C946500F7
S11300100C9465000C9465000C9465000C946500C8
S11300200C9465000C9465000C9465000C946500B8
S11300300C9465000C9465000C9465000C946500A8
S11300400C9465000C9465000C9465000C94650098
S11300500C9465000C9465000C9465000C94650088
S11300600C9465000C9465000C9465000C94650078
S11300700C9465000C9465000C9465000C94650068
S11300800C9465000C9465000C94650011241FBE4B
S1130090CFEFD0E1DEBFCDBF11E0A0E0B1E0E0E9F9
S11300A0F6E000E00BBF02C007900D92A231B10749
S11300B0D9F721E0A2E1B1E001C01D92A133B2075A
S11300C0E1F70E9452020C9446030C94000087B39B
S11300D0876087BB8DB180658DB9709A0895A998A2
S11300E085E38A95F1F70000A99A1FB8779BFECFA4
S11300F08FB1089595B3997F95BB95E09A95F1F7E3
S11301000000A99A8FB9779BFECFC09AC098AA9A8B
S11301108FB10895482FE82FF0E099B3EE0FFF1F39
S1130120EF5DFE4F20813181220F331F306E892F06
S113013090E002C0959587954A95E2F781709927DA
S1130140282B392B3183208381E02115304F09F08E
S113015080E00895883E23E0920790F120E0885ED5
S113016093402F5F883E33E09307C8F730E084362E
S1130170910530F0845691093F5F84369105D0F79C
S113018040E08A30910528F00A974F5F8A30910544
S1130190D8F70097B9F0211107C031110FC04111F0
S11301A00CC040E130E120E12093160130931501A9
S11301B04093130180931201089530E120E1F4CFBC
S11301C020E0D4CF80E0E7CF80FF46C081FF6AC043
S11301D093E09093200182FD47C083FDC0C010923C
S11301E01F01923009F448C0933009F467C080912C
S11301F01E01913009F4BAC0813009F4D6C08230AE
S113020009F42EC140911D0190911C0110921E0110
S113021080911F01813009F067C080911B01811119
S113022005C1309119013F5F3093190120911A01E2
S113023081E080931B01943008F466C0809117011B
S113024090911801860F911D811554E0950708F0CF
S1130250945010921C015CC0982F927081FD1EC0B6
S11302601092200182FFB9CF83FF20C083E08093E6
S11302701F01923009F0B8CF80911E01833009F438
S11302808CC040911D01811103C04F5F40931D013B
S113029090911C0182E080931E0121C092E0909312
S11302A02001E0CF91E090932001DCCF81E08093A6
S11302B01F01923009F3933009F099CF80911E0108
S11302C0813009F47AC040911D01823019F44F5FE6
S11302D040931D0190911C0183E080931E01809145
S11302E01F01813009F499CF813008F48FC0823026
S11302F009F47BC0833009F468C03091190120915E
S11303001A01943008F09ACF809117019091180146
S1130310443048F0861B9109811544E0940708F0A5
S1130320945010921D01343048F0860F911D8115B0
S113033054E0950708F0945010921901243048F0C5
S1130340861B9109811524E0920708F094501092BD
S11303501A0193709093180180931701089582E015
S113036080931F01923009F03FCF86CF882369F034
S113037040911D01833019F44F5F40931D0190910A
S11303801C0181E080931E01AACF90911C019F5F04
S113039090931C0140911D01F4CF90911C019F5F2B
S11303A090931C0140911D0175CF40911D014F5F39
S11303B040931D0190911C0129CF90911C019F5FD6
S11303C090931C0140911D0187CF80911B018130C6
S11303D009F456C0823009F44BC0309119012091C0
S11303E01A0183E080931B018CCF80911B01833021
S11303F039F181114DC020911A012F5F20931A0108
S11304003091190182E080931B017BCF80911B0105
S11304108130F1F030911901823019F43F5F30934B
S1130420190120911A0110921B016BCF8330A9F599
S113043020911A012F5F20931A0130911901F8CEEF
S1130440309119013F5F3093190120911A01DACFDD
S113045020911A012F5F20931A0130911901E3CFE3
S113046090911C019F5F90931C0140911D01CECE81
S113047020911A012F5F20931A0130911901B1CFF5
S1130480309119013F5F3093190120911A01A9CFCE
S11304903091190120911A01B5CF309119012091A1
S11304A01A01C6CECF93DF931F92CDB7DEB787B3C1
S11304B0876087BB8DB180658DB9709A87B3806F73
S11304C087BB84B3876084BBC79840E088248A9440
S11304D0A0EF9A2EBFE0AB2E1CEFE12E13E0F12E1D
S11304E058C0403F09F4CFC04F3F09F4B12CA89A3B
S11304F0842F49830E947A006B2D0E94E40080912E
S11305001701909118010E94AA008ABA88B38F78C3
S113051088BBE0911201F0E0E050FF4F80818BBB7B
S11305208FEC97E00197F1F700C00000C49AE091C6
S11305301301F0E0E050FF4F80818BBB8FEC97E01C
S11305400197F1F700C0000088B3806388BBE09195
S11305501501F0E0E050FF4F80818BBB8FEC97E0FA
S11305600197F1F700C0000088B38F7C88BBC69A5E
S1130570E0911601F0E0E050FF4F80818BBB8FECDF
S113058097E00197F1F700C0000088B3806788BB4B
S113059049811ABA8BBAA89825E32A95F1F7000085
S11305A029B38091210190912201880F991F906EA7
S11305B020FB662460F8712C8629972990932201E8
S11305C0809321018115904F09F45BC029B3809178
S11305D0230190912401880F991F906E21FB00271D
S11305E000F910E0802B912B909324018093230138
S11305F08115904F09F443C089B320912F013091A4
S11306003001220F331F306E90E0880F892F881F2E
S1130610990B282B392B3093300120932F0121156E
S1130620304F41F189B320912D0130912E01220FD9
S1130630331F306E86FBCC24C0F8D12C2C293D29E5
S113064030932E0120932D012115304F51F04F305E
S113065071F0403108F045CF411149CFBB24B39428
S113066046CFF0921801E09217014F3091F794E0D1
S1130670B92E3DCF1092180110921701D3CF4A25FD
S1130680BBCF4925A3CF82E0B82E31CFF894FFCF5A
S1130690C0F9A4B0999282F880908883C6A1868E0E
S10506A0FF0055
S9030000FC
