S0120000726F746172795F73656C2E73726563CE
S11300000C9446000C9465000C9465000C946500F7
S11300100C9465000C9465000C9465000C946500C8
S11300200C9465000C9465000C9465000C946500B8
S11300300C9465000C9465000C9465000C946500A8
S11300400C9465000C9465000C9465000C94650098
S11300500C9465000C9465000C9465000C94650088
S11300600C9465000C9465000C9465000C94650078
S11300700C9465000C9465000C9465000C94650068
S11300800C9465000C9465000C94650011241FBE4B
S1130090CFEFD0E1DEBFCDBF11E0A0E0B1E0E6E5F7
S11300A0F7E000E00BBF02C007900D92AC38B10737
S11300B0D9F721E0ACE8B1E001C01D92AB3AB20738
S11300C0E1F70E9469020C94A9030C94000087B321
S11300D0876087BB8DB180658DB9709A0895A998A2
S11300E085E38A95F1F70000A99A1FB8779BFECFA4
S11300F08FB1089580B7886080BF85B5896785BD55
S1130100089595B3997F95BB95E09A95F1F7000012
S1130110A99A8FB9779BFECFC09AC098AA9A8FB13B
S11301200895482FE82FF0E099B3EE0FFF1FE5562E
S1130130FE4F20813181220F331F306E892F90E0D2
S113014002C0959587954A95E2F781709927282BE7
S1130150392B3183208381E02115304F09F080E071
S11301600895883E23E0920790F120E0885E934052
S11301702F5F883E33E09307C8F730E0843691055B
S113018030F0845691093F5F84369105D0F740E002
S11301908A30910528F00A974F5F8A309105D8F785
S11301A00097B9F0211107C031110FC041110CC0E3
S11301B040E130E120E12093900130938F0140939E
S11301C08D0180938C01089530E120E1F4CF20E08B
S11301D0D4CF80E0E7CF80FF46C081FF6AC093E0C0
S11301E090939A0182FD47C083FDC3C01092990188
S11301F0923009F448C0933009F467C080919801A3
S1130200913009F4BDC0813009F4E1C0823009F4B1
S11302102BC1409197019091960110929801809181
S11302209901813009F067C080919501811112C153
S1130230309193013F5F309393012091940181E0C9
S113024080939501943008F466C080919101909157
S11302509201860F911D811554E0950708F0945082
S1130260109296015CC0982F927081FD1EC010926E
S11302709A0182FFB9CF83FF20C083E08093990164
S1130280923009F0B8CF80919801833009F497C077
S113029040919701811103C04F5F40939701909162
S11302A0960182E08093980121C092E090939A0194
S11302B0E0CF91E090939A01DCCF81E080939901A3
S11302C0923009F3933009F099CF809198018130ED
S11302D009F46DC040919701823019F44F5F409347
S11302E097019091960183E0809398018091990100
S11302F0813009F499CF813008F49CC0823009F42C
S113030088C0833009F475C0309193012091940121
S1130310943008F09ACF80919101909192014430E9
S113032048F0861B9109811544E0940708F0945025
S113033010929701343058F03091110141E0430F8D
S11303404A3708F052C040931101109293012430AF
S113035050F020911101215009F041C029E7209368
S113036011011092940193709093920180939101E2
S1130370089582E080939901923009F03CCF83CFB5
S1130380882369F040919701833019F44F5F4093BB
S113039097019091960181E080939801A7CF909165
S11303A096019F5F9093960140919701F4CF9091AD
S11303B096019F5F909396014091970194CF9091FD
S11303C096019F5F90939601409197016ACF409167
S11303D097014F5F40939701909196011ECF2A3762
S11303E008F474C010921101BCCF38573093110136
S11303F0ACCF80919501813009F456C0823009F464
S11304004BC0309193012091940183E08093950136
S11304107FCF809195018330B9F181114DC0209136
S113042094012F5F209394013091930182E0809393
S113043095016ECF809195018130F1F03091930157
S1130440823019F43F5F309393012091940110920C
S113045095015ECF8330A9F5209194012F5F2093FD
S1130460940130919301EBCE909196019F5F90930C
S1130470960140919701D1CE209194012F5F209352
S1130480940130919301E3CF309193013F5F309316
S1130490930120919401CACF209194012F5F20935E
S11304A0940130919301B1CF309193013F5F309328
S11304B0930120919401A9CF30919301209194014B
S11304C0B5CF3091930120919401B9CE20931101BD
S11304D048CFCF93DF9300D01F92CDB7DEB787B359
S11304E0876087BB8DB180658DB9709A80B788604D
S11304F080BF85B5896785BD87B3806F87BB84B3AB
S1130500876084BBC79840E033243A9410EF412EAF
S11305100FE0502E8CEFA82E83E0B82E99E7692EB9
S113052058C0403F09F412C14F3F09F4712CA89AF6
S1130530842F49830E948100672D0E94EB008091E3
S11305409101909192010E94B1003ABA88B38F78D8
S113055088BBE0918C01F0E0E050FF4F80818BBBC1
S11305608FEC97E00197F1F700C00000C49AE09186
S11305708D01F0E0E050FF4F80818BBB8FEC97E062
S11305800197F1F700C0000088B3806388BBE09155
S11305908F01F0E0E050FF4F80818BBB8FEC97E040
S11305A00197F1F700C0000088B38F7C88BBC69A1E
S11305B0E0919001F0E0E050FF4F80818BBB8FEC25
S11305C097E00197F1F700C0000088B3806788BB0B
S11305D049811ABA3BBAA89825E32A95F1F7000095
S11305E0E0911101EA3718F0E957E0931101F0E0C6
S11305F0EE5EFE4F808183BD29B380919B01909173
S11306009C01880F991F906E21702A831B822A8176
S11306103B81822B932B90939C0180939B018115AA
S1130620904F09F491C029B380919D0190919E014E
S1130630880F991F906E21FB002700F910E0802B92
S1130640912B90939E0180939D018115904F09F405
S113065079C029B38091A9019091AA01880F991FAB
S1130660BC01706E822F90E09C01220F232F221F69
S1130670330BCB01822B932B9093AA018093A90176
S11306808115904F09F459C029B38091A701909125
S1130690A801880F991F906E26FBEE24E0F8F12C38
S11306A08E299F299093A8018093A7018115904FCB
S11306B009F43EC029B38091A5019091A601880F49
S11306C0991F906E25FBCC24C0F8D12C8C299D2930
S11306D09093A6018093A5018115904F31F189B3C0
S11306E02091A3013091A401220F331F306E84FBAB
S11306F0882480F8912C282939293093A401209347
S1130700A3012115304F51F04F3061F0403108F012
S113071008CF41110CCF7724739409CF6092110153
S11307204F30A1F794E0792E02CF10921101D7CF68
S1130730B0929201A0929101BDCF109292011092B9
S11307409101A2CF452585CF44256DCF82E0782E37
S1090750EECEF894FFCF89
S1130756C0F9A4B0999282F880908883C6A1868E47
S1130766FF790001010101010202020202030303EF
S11307760404040405050606060707080808090A0A
S11307860A0A0B0C0D0E0E0F101112141516181A58
S11307961B1C1E1F20222324262728292A2C2D2E03
S11307A63031323436383A3B3D3F41434547484A77
S11307B64C4E505255585A5C5F6264676A6D707449
S11307C6777A7D81868A8E93979CA0A5AAAFB4B9C1
S10F07D6BEC3C8CFD6DDE4EAF1F8FF0092
S9030000FC
